:100316000110000126000D1541325F545858584807
:100326005858535823043E54585858044254585861
:1003360058030A485858030D48585802224858028C
:03034600244858F0
:100026001203B6120252120381120414D294120160
:10003600DF20910B120414209108753D3180037561
:100046003D30751854E50875F06484AFF0EF75F02F
:100056000A842430F519E50875F00A84E5F02430A1
:10006600F51AE50975F00A84E5F02430F51B751CD0
:1000760048E53775F06484E5F075F00A842430F5B8
:100086001DE53775F00A84E5F02430F51E751F531B
:10009600853D20EFD3942D500DE53D64316007E595
:1000A60037C394145004C2948002D2943093097BCF
:1000B600007A00791512039C7F8012036A7F53121F
:1000C600000C7F6912000C7F7412000C7F65120011
:1000D6000C7F3A12000C7F3012000C7F3212000C9B
:1000E6007FC012036A7F5412000C7F3A12000CE59F
:1000F6000875F06484E5F075F00A842430FF120078
:100106000CE5081200037F2E12000CE5091200030D
:100116007F2012000C7F4812000C7F3A12000CE57B
:100126003775F06484E5F075F00A842430FF120018
:100136000CE5371200037F2012000C7F5312000CCF
:0D0146007F3A12000CAF3D12000C02003495
:0900030075F00A84E5F02430FFD9
:10000C008F4C1203FF854CA0D2B5C2B6C2B7C2B793
:03001C00D2B72236
:040366007D017C0099
:10036A008F4CED4C60031203FF854CA0C2B5C2B698
:07037A00C2B7C2B7D2B722DF
:0D042300D2B5D2B6C2B7C2B7D2B7AFA022D1
:1003FF0075A0FFC2B5D2B6C2B7C2B7D2B7E5A020BB
:05040F00E7FBAFA02295
:10025200E4F5A0FDFC7F3812036A120414E4FDFCED
:100262007F3812036A120414E4FDFC7F3812036A19
:100272001204147F381203667F081203667D017C24
:10028200007F0112036A7D017C007F0612036A7DF2
:08029200017C007F0C02036AED
:10034A008B4B53050153070FED60034307404307E7
:0C035A0080E4FDFC12036AAF4B02000CB3
:0802DD008F468D478A488B49CA
:1002E500E4F54A53470153460FE549254AF582E4AB
:1002F5003548F583E493FBC394204014E546D39435
:100305000F50E6AD47AF4612034A054A054680D968
:0103150022C5
:0E0414007FB07E15EF1FAC0670011E4C70F617
:0104220022B7
:1003B6007D05AC051DEC60107E1C7F65EF1FAA064F
:0803C60070011E4A60EC80F496
:0103CE00220C
:1003E800D3EF9400EE9400400DE4FD0DBD1BFCEF2F
:0603F8001F70ED1E80EAFB
:0103FE0022DC
:0C043000154C154C154C154C154C154C7A
:01043C00229D
:10029A00E4FF751302209007AE130513EE70F612F1
:1002AA000430120430120430E4F536309003753607
:1002BA0001751302309007AE130513EE70F6E513BD
:1002CA006401600EE53C25E0F53CE536423C0FBF93
:0202DA0008C05A
:0102DC0022FF
:1001DF00C2907FB47E001203E8D290120430120452
:1001EF0030120430120430D2902090567513022032
:1001FF009007AF130513EF70F6751302309007AF2A
:10020F00130513EF70F612029A853C3912029A8584
:10021F003C3A12029A853C1112029A853C12120244
:10022F009A853C35D290E51125122539253AF536B8
:10023F00B5350F853937853A388511088512098507
:03024F0035142241
:10038100759850758920758DFD758BFAC29FD29E27
:0B039100D28EC299C298D2ACD2AF222B
:10039C00C2AC1203CF6010F5993099FDC29974016B
:0A03AC0029F9E43AFA80EBD2AC2202
:0300230002001FB9
:03001F00C2983252
:03000000020153A7
:0C015300787FE4F6D8FD75814C02019A1B
:1003CF00BB010689828A83E0225002E722BBFE022C
:0903DF00E32289828A83E493225F
:10015F00020026E493A3F8E493A34003F68001F290
:10016F0008DFF48029E493A3F85407240CC8C333A1
:10017F00C4540F4420C8834004F456800146F6DF70
:10018F00E4800B0102040810204080900316E47EE7
:10019F00019360BCA3FF543F30E509541FFEE49365
:1001AF00A360010ECF54C025E060A840B8E493A32C
:1001BF00FAE493A3F8E493A3C8C582C8CAC583CA57
:1001CF00F0A3C8C582C8CAC583CADFE9DEE780BE0F
:0103490000B3
:00000001FF
