:03000000020026D5
:0C002600787FE4F6D8FD75813A02006D89
:1003DB00CEBBD6C33031B5C4BCE0BFD8C8E7CFC2A3
:0103EB000011
:10023E00010E000120000D0F41305F5458585848F0
:10024E005858535823042E5458585804325458585A
:10025E00580308485858030B485858021C53580264
:03026E001E5358C4
:1000B20012039A1203271203EC1203667A037BDB04
:1000C200E4FDFF120136AB2E7D02E4FF1201FDAB0F
:1000D2002F7D027F011201FDAB307D027F021201F2
:1000E200FDAB317D027F031201FDAB087D027F046F
:1000F2001201FDAB097D027F051201FDAB1C7D02E1
:100102007F061201FDAB1D7D027F071201FDAB329E
:100112007D03E4FF1201FDAB337D037F011201FD7C
:10012200AB347D037F021201FDAB357D037F0312E9
:0401320001FD8088C3
:1003B3008F3A1203C8D292C291853AA0D290D290BA
:0503C300D290C290225F
:060003007D017C007F0876
:100009008F3AED4C60031203C8C292C291853AA09F
:09001900D290D290D290C2902244
:0D03FB00D292D291C290C290D290AFA022B7
:1003C80075A0FFC292D291D290E5A020E7FBC2901F
:0303D800AFA022B1
:100327007D017C007F301200097D017C007F011276
:1003370000097D017C007F061200097D017C007F9A
:040347000C0200099B
:10034B007D017C007F011200097D017C007F34124E
:0B035B0000097D017C007F30020009DA
:1002FD0012000312039A7D017C007F0C120009127B
:10030D00039A12000312039A7D017C007F0C1200E8
:0A031D000912039A12000302039A6A
:1001FD008B36EDC3940150027D01EDD39404400282
:10020D007D0453070FED24FE600F1460111460136D
:10021D0024037012430780800D4307908008430725
:10022D00888003430798E4FDFC120009AF360203F2
:01023D00B30D
:060136008F368A378B387A
:10013C00E4F539EDC3940150027D01EDD3940440F4
:10014C00027D0453360FED24FE600F146011146011
:10015C001324037012430780800D430790800843DB
:10016C00078880034307987D017C00120009E5385D
:10017C002539F582E43537F583E493FFC3942040A9
:10018C0013E536D3940F50E61203B3053905361236
:04019C0003EC80DA16
:0101A000223C
:0E03EC007FB07E15EF1FAC0670011E4C70F640
:0103FA0022E0
:10039A007D05AC051DEC60107E1C7F65EF1FAA066B
:0803AA0070011E4A60EC80F4B2
:0103B2002228
:10036600759850758920758DFA758BFA438780D2FA
:0A0376008EC299C298D2ACD2AF2219
:10038000C2AC1202D26010F5993099FDC299740185
:0A03900029F9E43AFA80EBD2AC221E
:1002A4007B007A007921E4FFE5991202EBE4FEC2B7
:1002B40098C3EF6480948C50130F740129F9E43AC5
:0D02C400FA2098E40EEED3948240F622D387
:0102D100220A
:1001A100E52164417054E52D6423704EE52224CE8F
:1001B100602E047043E52324A17023E524B454097F
:1001C10085252F852630852731E528B448068529E0
:1001D10009852A0AE52BB45303852C1DC322C322AA
:1001E100E52324A17010E524B4540985253385261F
:0C01F10034852735C322C322C322C32259
:0300230002027264
:10027200C0E0C083C082C0D075D000C001C002C03F
:1002820003C006C0071202A450031201A1C298D0F3
:1002920007D006D003D002D001D0D0D082D083D0F4
:0202A200E03248
:100032000200B2E493A3F8E493A34003F68001F232
:1000420008DFF48029E493A3F85407240CC8C333CF
:10005200C4540F4420C8834004F456800146F6DF9E
:10006200E4800B010204081020408090023EE47EEE
:10007200019360BCA3FF543F30E509541FFEE49393
:10008200A360010ECF54C025E060A840B8E493A35A
:10009200FAE493A3F8E493A3C8C582C8CAC583CA85
:1000A200F0A3C8C582C8CAC583CADFE9DEE780BE3D
:01027100008C
:1002D200BB010689828A83E0225002E722BBFE022A
:0902E200E32289828A83E493225D
:1002EB00BB010689828A83F0225002F722BBFE01F2
:0202FB00F322EC
:00000001FF
