:030000000200EA11
:0C00EA00787FE4F6D8FD75813B020131FF
:10029900010E000120000D0F41305F545858584895
:1002A9005858535823042E545858580432545858FF
:1002B900580308485858030B485858021C53580209
:0302C9001E535869
:10002600120357120404120396D293C2947F8012CD
:1000360000097F311203CA7F90120009AF2E120306
:10004600CA7F3A1203CAAF2F1203CAAF301203CACD
:100056007F2E1203CAAF311203CA7F201203CAAF22
:10006600081203CA7F3A1203CAAF091203CAAF0ABB
:100076001203CA7F201203CAAF1C1203CA7F3A12A8
:1000860003CAAF1D1203CA7F881200097F3212030A
:10009600CA7F98120009AF321203CA7F3A1203CA06
:1000A600AF331203CAAF341203CA7F2E1203CAAF8C
:1000B600351203CA7F201203CAAF0B1203CA7F3A56
:1000C6001203CAAF0C1203CAAF0D1203CA7F201265
:1000D60003CAAF1E1203CA7F3A1203CAAF1F120326
:0400E600CA02003317
:1003CA008F3B1203DFD292C291853BA0D290D2908A
:0503DA00D290C2902248
:060003007D017C007F0876
:100009008F3BED4C60031203DFC292C291853BA086
:09001900D290D290D290C2902244
:0D041300D292D291C290C290D290AFA0229E
:1003DF0075A0FFC292D291D290E5A020E7FBC29008
:0303EF00AFA0229A
:100357007D017C007F301200097D017C007F011246
:1003670000097D017C007F061200097D017C007F6A
:040377000C0200096B
:10037B007D017C007F011200097D017C007F34121E
:0B038B0000097D017C007F30020009AA
:10032D001200031203B17D017C007F0C1200091233
:10033D0003B11200031203B17D017C007F0C12008A
:0A034D00091203B11200030203B10C
:100258008B3AEDC3940150027D01EDD39404400222
:100268007D0453070FED24FE600F14601114601312
:1002780024037012430780800D43079080084307CA
:10028800888003430798E4FDFC120009AF3A020393
:01029800CA9B
:0601ED008F368A378B38C3
:1001F300E4F539EDC3940150027D01EDD39404403D
:10020300027D0453360FED24FE600F146011146059
:100213001324037012430780800D43079080084323
:10022300078880034307987D017C00120009E538A5
:100233002539F582E43537F583E493FFC3942040F1
:1002430013E536D3940F50E61203CA053905361267
:04025300040480DA45
:010257002284
:0E0404007FB07E15EF1FAC0670011E4C70F627
:0104120022C7
:1003B1007D05AC051DEC60107E1C7F65EF1FAA0654
:0803C10070011E4A60EC80F49B
:0103C9002211
:10039600759850758920758DFD758BFAC29FD29E12
:0B03A600D28EC299C298D2ACD2AF2216
:1002FF007B007A007921E4FFE5991203F2E4FEC254
:10030F0098C3EF6480948C50130F740129F9E43A69
:0D031F00FA3098FD0EEED3948240DD22D31B
:01032C0022AE
:10017600E5216441706FE52D64237069E52224CE84
:10018600603204705EE52324A17027E524B4540987
:1001960085252F852630852731E528B4480685290B
:1001A60009852A0AE52BB45303852C1DC293D294E4
:1001B600C322C322E52324A17027E524B45409856C
:1001C6002533852634852735E528B4480685290C48
:1001D600852A0DE52BB45303852C1FD293C294C3F5
:0701E60022C322C322C32241
:030023000202CD09
:1002CD00C0E0C083C082C0D075D000C001C002C0E4
:1002DD0003C006C0071202FF5003120176C298D068
:1002ED0007D006D003D002D001D0D0D082D083D099
:0202FD00E032ED
:1000F600020026E493A3F8E493A34003F68001F2FA
:1001060008DFF48029E493A3F85407240CC8C3330A
:10011600C4540F4420C8834004F456800146F6DFD9
:10012600E4800B0102040810204080900299E47ECE
:10013600019360BCA3FF543F30E509541FFEE493CE
:10014600A360010ECF54C025E060A840B8E493A395
:10015600FAE493A3F8E493A3C8C582C8CAC583CAC0
:10016600F0A3C8C582C8CAC583CADFE9DEE780BE78
:0102CC000031
:1003F200BB010689828A83F0225002F722BBFE01EA
:02040200F322E3
:00000001FF
