:100319000122000110000127000D1541315F5458D9
:100329005858485858535823043F54585858044368
:1003390054585858030A485858030D485858022326
:0603490048580225485847
:100026001202551203A312041C1201E220910B12B4
:10003600041C209108753E318003753E30751854B6
:10004600E50875F06484AFF0EF75F00A842430F5A6
:1000560019E50875F00A84E5F02430F51AE5097506
:10006600F00A84E5F02430F51B751C48E53875F078
:100076006484E5F075F00A842430F51DE53875F0E2
:100086000A84E5F02430F51E751F53853E20EFD314
:10009600942D500DE53E64316007E538C394145045
:1000A60004C2948002D294309303752201E522B4EF
:1000B60001097B007A0079151200037F8012038CF8
:1000C6007F531203597F691203597F741203597FB4
:1000D600651203597F3A1203597F301203597F3153
:1000E6001203597FC012038C7F541203597F3A12B0
:1000F6000359E50875F06484E5F075F00A84243048
:10010600FF120359E5081203507F2E120359E50921
:100116001203507F201203597F481203597F3A1267
:100126000359E53875F06484E5F075F00A842430E7
:10013600FF120359E5381203507F201203597F53EB
:100146001203597F3A120359AF3E12035902002F88
:0903500075F00A84E5F02430FF89
:100359008F4D120407854DA0D2B5C2B6C2B7C2B738
:03036900D2B722E6
:040388007D017C0077
:10038C008F4DED4C6003120407854DA0C2B5C2B66B
:07039C00C2B7C2B7D2B722BD
:0D042B00D2B5D2B6C2B7C2B7D2B7AFA022C9
:1004070075A0FFC2B5D2B6C2B7C2B7D2B7E5A020B2
:05041700E7FBAFA0228D
:10025500E4F5A0FDFC7F3812038C12041CE4FDFCC0
:100265007F3812038C12041CE4FDFC7F3812038CCA
:1002750012041C7F381203887F081203887D017CD5
:10028500007F0112038C7D017C007F0612038C7DAB
:08029500017C007F0C02038CC8
:10036C008B4C53050153070FED60034307404307C4
:0C037C0080E4FDFC12038CAF4C0203591E
:0802E0008F478D488A498B4AC3
:1002E800E4F54B53480153470FE54A254BF582E4A3
:1002F8003549F583E493FBC394204014E547D39430
:100308000F50E6AD48AF4712036C054B054780D93F
:0103180022C2
:0E041C007FB07E15EF1FAC0670011E4C70F60F
:01042A0022AF
:1003BE007D05AC051DEC60107E1C7F65EF1FAA0647
:0803CE0070011E4A60EC80F48E
:0103D6002204
:1003F000D3EF9400EE9400400DE4FD0DBD1BFCEF27
:060400001F70ED1E80EAF2
:0104060022D3
:0C043800154D154D154D154D154D154D6C
:010444002295
:10029D00E4FF751302209007AE130513EE70F612EE
:1002AD000438120438120438E4F5373090037537EA
:1002BD0001751302309007AE130513EE70F6E513BA
:1002CD006401600EE53D25E0F53DE537423D0FBF8C
:0202DD0008C057
:0102DF0022FC
:1001E200C2907FB47E001203F0D29012043812043F
:1001F20038120438120438D2902090567513022017
:100202009007AF130513EF70F6751302309007AF26
:10021200130513EF70F612029D853D3A12029D8579
:100222003D3B12029D853D1112029D853D12120237
:100232009D853D36D290E5112512253A253BF537AD
:10024200B5360F853A38853B3985110885120985FF
:030252003614223D
:1003A300759850758920758DFD758BFAC29FD29E05
:0B03B300D28EC299C298D2ACD2AF2209
:10000300C2AC1203D76010F5993099FDC2997401FF
:0D00130029F9E43AFA80EBD2ACE4F52222A0
:03002300020020B8
:03002000C2983251
:03000000020156A4
:0C015600787FE4F6D8FD75814D02019D14
:1003D700BB010689828A83E0225002E722BBFE0224
:0903E700E32289828A83E4932257
:10016200020026E493A3F8E493A34003F68001F28D
:1001720008DFF48029E493A3F85407240CC8C3339E
:10018200C4540F4420C8834004F456800146F6DF6D
:10019200E4800B0102040810204080900319E47EE1
:1001A200019360BCA3FF543F30E509541FFEE49362
:1001B200A360010ECF54C025E060A840B8E493A329
:1001C200FAE493A3F8E493A3C8C582C8CAC583CA54
:1001D200F0A3C8C582C8CAC583CADFE9DEE780BE0C
:01034F0000AD
:00000001FF
