:10042B006963323031322E74616F62616F2E636F8C
:10043B000048617070792065766572792064617906
:02044B0021008E
:10030200010800053F5253323332011100012C0023
:100312000D1B41315F5458585848585853582304BC
:100322005254585858045654585858030B48585861
:0D033200030E48585802284858022A48581F
:1000260012048112027712044D1204D912048112AD
:1000360001BB7B487D017F0112040F7B3A7D017F66
:100046000212040FE53D75F06484E5F075F00A844C
:100056002430FB7D017F0312040FE53D7F0412046B
:10006600047B547D017F0612040F7B3A7D017F07D6
:1000760012040FE50975F06484E5F075F00A84242E
:1000860030FB7D017F0812040FE5097F0912040485
:100096007B2E7D017F0A12040FE50A75F00A84E5BE
:1000A600F02430FB7D017F0B12040F7B537D017F13
:1000B6000D12040F7B3A7D017F0E12040F7B587DD3
:1000C600017F0F12040F751E54E50975F06484E56F
:1000D600F075F00A842430F51FE50975F00A84E509
:1000E600F02430F520E50A75F00A84E5F02430F5B1
:1000F60021752248E53D75F06484E5F075F00A84C3
:100106002430F523E53D75F00A84E5F02430F52426
:100116007525537526317B007A00791B1204677F9B
:09012600107E2712049A02003237
:1004C6008F601204B18560A0D2B5C2B6C2B7C2B7FA
:0304D600D2B72278
:040003007D017C00FF
:100007008F60ED4C60031204B18560A0C2B5C2B623
:07001700C2B7C2B7D2B72245
:0D04E800D2B5D2B6C2B7C2B7D2B7AFA0220C
:1004B10075A0FFC2B5D2B6C2B7C2B7D2B7E5A02008
:0504C100E7FBAFA022E3
:10027700E4F5A0FDFC7F381200071204D9E4FDFC69
:100287007F381200071204D9E4FDFC7F38120007FB
:100297001204D97F381200037F081200037D017C06
:1002A700007F011200077D017C007F061200077D99
:0802B700017C007F0C0200072E
:0B04040075F00A84E5F02430FB7D0158
:10040F008B5F53050153070FED600343074043070D
:0C041F0080E4FDFC120007AF5F0204C681
:080340008F5A8D5B8A5C8B5D16
:10034800E4F55E535B01535A0FE55D255EF582E4E3
:10035800355CF583E493FBC394204014E55AD394A9
:100368000F50E6AD5BAF5A12040F055E055A80D9EF
:010378002262
:0E04D9007FB07E15EF1FAC0670011E4C70F652
:0104E70022F2
:100481007D05AC051DEC60107E1C7F65EF1FAA0683
:0804910070011E4A60EC80F4CA
:010499002240
:10049A00D3EF9400EE9400400DE4FD0DBD1BFCEF7C
:0604AA001F70ED1E80EA48
:0104B0002229
:0C04F500155F155F155F155F155F155F43
:0105010022D7
:1002BF00E4FF751802209007AE180518EE70F612BD
:1002CF0004F51204F51204F5E4F53C309003753C87
:1002DF0001751802309007AE180518EE70F6E51884
:1002EF006401600EE54725E0F547E53C42470FBF47
:0202FF0008C035
:0103010022D9
:1001BB00C2907FB47E0012049AD2901204F51204FE
:1001CB00F51204F51204F5D2902090567518022002
:1001DB009007AF180518EF70F6751802309007AF3F
:1001EB00180518EF70F61202BF8547441202BF853F
:1001FB0047451202BF8547121202BF8547131202F1
:10020B00BF85473BD290E512251325442545F53C88
:10021B00B53B0F85443D85453E85120985130A85FF
:03022B003B1A2259
:10044D00759850758920758DFA758BFA438780D212
:0A045D008EC299C298D2ACD2AF2231
:10046700C2AC1203D96010F5993099FDC299740195
:0A04770029F9E43AFA80EBD2AC2236
:1003AB007B007A00792DE4FFE5991203F2E4FEC29B
:1003BB0098C3EF6480948750130F740129F9E43AC2
:0D03CB00FA2098E40EEED3948240F622D37F
:0103D8002202
:10022E00E52D64417041E5346423703BE52E24CE08
:10023E00601B047030E52F24A17010E530B4540912
:10024E00853153853254853355C322C322E52F247D
:10025E00A17010E530B45409853157853258853375
:09026E0059C322C322C322C3229A
:030023000203795C
:10037900C0E0C083C082C0D075D000C001C002C037
:1003890003C006C0071203AB500312022EC298D055
:1003990007D006D003D002D001D0D0D082D083D0EC
:0203A900E03240
:0300000002012FCB
:0C012F00787FE4F6D8FD7581600201764F
:1003D900BB010689828A83E0225002E722BBFE0222
:0903E900E32289828A83E4932255
:1003F200BB010689828A83F0225002F722BBFE01EA
:02040200F322E3
:10013B00020026E493A3F8E493A34003F68001F2B4
:10014B0008DFF48029E493A3F85407240CC8C333C5
:10015B00C4540F4420C8834004F456800146F6DF94
:10016B00E4800B0102040810204080900302E47E1F
:10017B00019360BCA3FF543F30E509541FFEE49389
:10018B00A360010ECF54C025E060A840B8E493A350
:10019B00FAE493A3F8E493A3C8C582C8CAC583CA7B
:1001AB00F0A3C8C582C8CAC583CADFE9DEE780BE33
:01033F0000BD
:00000001FF
